:100000000C949D010C94C5010C94C5010C94C50180
:100010000C94C5010C94C5010C94C5010C94C50148
:100020000C94C5010C94C5010C9450090C94BF09A3
:100030000C94C5010C94C5010C94C5010C94C50128
:100040000C94C5010C94C5010C94C5010C94C50118
:100050000C94C5010C94C5010C94C5010C940609BF
:100060000C94C5010C94C5010C94C5010C94C501F8
:100070000C94C5010C94C5010C94C5010C94C501E8
:100080000C94C5010C94C5010C94C5010C94C501D8
:100090000C94C5010C94C5010C94C5010C94C501C8
:1000A0000C94C5010C94C5010C94C501080B000209
:1000B0000202000009040000010202000005240001
:1000C0001001052401010104240206052406000193
:1000D0000705810310004009040100020A00000026
:1000E00007050202400000070583024000000403E8
:1000F000090412010002EF02014041233680000191
:100100000102030141726475696E6F204C4C43001B
:1001100041726475696E6F204C656F6E6172646FB9
:1001200000706F74313A20302D312E343D3B6C6BB2
:100130006A682020312E392D332E333D6766647373
:1001400061207C207468726F74746C653A207A78D0
:10015000637662207C2062746E373D7200485436AC
:10016000323620534146453A206B6579626F6172A1
:1001700064204F464620756E74696C2070696E204D
:1001800032202D3E20474E440020207468726F7448
:10019000746C654B65793D004E00590020206B65FD
:1001A000793D002056202061726D65643D00205627
:1001B000202041313D0041303D004B6579626F6147
:1001C00072642053414645202870696E2032206FAA
:1001D00070656E29004B6579626F617264204152CF
:1001E0004D4544202870696E20322067726F756E0D
:1001F0006465642900070605040100080A0B0C0D5C
:1002000009000000002300260029002C002F000018
:1002100000000200090F0000030401000C000000B0
:1002200000000000000000000000000000000000CE
:100230000000250028002B002E00310000000000E7
:10024000240027002A002D003000040404040403C5
:100250000405020202020403020202020606060666
:10026000060604040202020404040802011040808D
:10027000401020408040800802040180402010028D
:10028000011080102040402000000000000000000D
:100290002A2B2800000000000000000000000000E1
:1002A00000000000000000002C9EB4A0A1A2A43415
:1002B000A6A7A5AE362D3738271E1F2021222324BE
:1002C0002526B333B62EB7B89F8485868788898A5A
:1002D0008B8C8D8E8F909192939495969798999AF6
:1002E0009B9C9D2F3130A3AD350405060708090AF4
:1002F0000B0C0D0E0F101112131415161718191AD6
:100300001B1C1DAFB1B0B50005010906A101850296
:10031000050719E029E715002501750195088102F7
:100320009501750881039506750815002573050765
:10033000190029738100C000F10B11241FBECFEFFB
:10034000DAE0DEBFCDBF11E0A0E0B1E0E4EDF3E222
:1003500002C005900D92A036B107D9F722E0A0E6C1
:10036000B1E001C01D92AB30B207E1F711E0CDE979
:10037000D1E004C02197FE010E94E211CC39D107DF
:10038000C9F70E94890C0C94E8110C940000CF93DB
:10039000DF93FC0181819091DA01482F490F5527A5
:1003A000551F483051059CF5A281B381109709F57E
:1003B00026ED31E03383228320812093D80180937E
:1003C000D9018091DB01820F80832091DC01A22F73
:1003D000B091DD018A2F821B8917E8F481813D915C
:1003E000C82FD0E0C05FDE4F38838F5F8183F2CFAC
:1003F000D90118962D913C91199721153105C1F716
:1004000026ED31E019963C932E931897D5CF80E0D6
:10041000DF91CF91089581E0FBCFCF93DF9390E000
:10042000FC01E759FD4F2491865B9D4FFC018491AF
:100430008823C1F090E0880F991FFC01E45CFD4F18
:10044000C591D491FC01E25DFD4FA591B4919FB798
:10045000F8943881822F809583238883EC91E22B56
:10046000EC939FBFDF91CF910895FC0180918501AE
:10047000882311F13FB7F89482E08093E90020913E
:10048000F200822F90E01816190614F481E090E033
:10049000882339F0289844E6409384014091F10084
:1004A0004083222339F02091F200211103C02BE672
:1004B0002093E8003FBF08958FEF9FEF0895282F06
:1004C00030E0F901E15FFD4F9491F901E759FD4FEB
:1004D0008491265B3D4FF9012491222309F45BC0EE
:1004E0009923E9F091509F30D0F4E92FF0E0E558DE
:1004F000FD4F0C94E211A602AA028A029E02A202F9
:100500008F028F028F02AD02B302B702BB02C1029B
:100510008F02C502909180009F7790938000E22F18
:10052000F0E0EE0FFF1FEF5FFD4FA591B491EC914E
:10053000E82381E090E089F580E0089590918000C3
:100540009F7DEBCF90918000977FE7CF94B59F7709
:1005500094BDE5CF94B59F7DFBCF909190009F77A0
:1005600090939000DCCF909190009F7DF9CF909177
:100570009000977FF5CF9091C0009F779093C00037
:10058000CECF9091C0009F7DF9CF9091C200977F10
:100590009093C200C4CF80E090E008958251E82F8C
:1005A000F0E0EB50FE4FE49190917B008E2F880F8E
:1005B000880F80729F7D892B80937B00E770E064B9
:1005C000E0937C0080917A00806480937A0080912F
:1005D0007A0086FDFCCF8091780090917900089593
:1005E0003FB7F8948091800190918101A0918201A0
:1005F000B091830126B5A89B05C02F3F19F0019645
:10060000A11DB11D3FBFBA2FA92F982F8827BC016C
:10061000CD01620F711D811D911D42E0660F771F94
:10062000881F991F4A95D1F708958F929F92AF9294
:10063000BF92CF92DF92EF92FF924B015C010E943A
:10064000F0026B017C010E94F0026C197D098E0999
:100650009F09683E734081059105A8F321E0821A45
:100660009108A108B10888EEC80E83E0D81EE11CED
:10067000F11C81149104A104B10429F7FF90EF90BB
:10068000DF90CF90BF90AF909F908F900895409152
:100690006E0150916F0120916C0130916D014217F4
:1006A0005307B4F49091E8009570E1F39091E8005D
:1006B00092FD19C08093F10080916E0190916F01BD
:1006C00001968F739927892B19F48EEF8093E80098
:1006D00080916E0190916F01019690936F018093CC
:1006E0006E0181E0089580E00895EF92FF920F93EC
:1006F0001F93CF93DF93F82E192FE62E042F81E05E
:10070000860F880F0E94470383E00E944703CF2D86
:10071000D12FEC0EFD2EF11CCE15DF05B9F007FF31
:1007200013C0FE0184910E944703182F80E00E94AD
:100730004703812321968111EFCFDF91CF911F9144
:100740000F91FF90EF9008958881EDCF81E0F5CF74
:10075000DF92EF92FF920F931F93CF93DF93D82EE8
:100760008A01EB017B01E40EF51ECE15DF0559F081
:10077000D7FE12C0FE0184910E9447032196811189
:10078000F4CF0FEF1FEFC801DF91CF911F910F91B1
:10079000FF90EF90DF9008958881EECF2FB7F89407
:1007A00087708093E9009091E800892F807295FF0F
:1007B00004C09091F20080E4891B2FBF08957F92BE
:1007C0008F929F92AF92BF92CF92DF92EF92FF9261
:1007D0000F931F93CF93DF93C82E8B017A018091E3
:1007E0008501811110C08FEF9FEFDF91CF911F9195
:1007F0000F91FF90EF90DF90CF90BF90AF909F90C0
:100800008F907F9008958091720180FF05C0809144
:10081000E00082608093E000CE2DDF2DD12C8AEFA6
:10082000B82E8C2D8770982E8C2D8072882E8C2D52
:100830008074782E9AE3A92E209719F4DD2009F40C
:1008400052C08C2D0E94CE0381110AC0BA94BB20E5
:1008500051F261E070E080E090E00E941503ECCF7F
:100860008C171D0611F00CF08C2F9FB7F894909206
:10087000E9002091E80025FD02C09FBFDDCF282FB1
:1008800030E0C21BD30B882029F08150A0F01092D9
:10089000F100FBCFF801C7FC0AC0815050F0419134
:1008A0004093F100FACF44914093F100319681508A
:1008B000D0F7020F131FDD2021F0A092E800D12C09
:1008C000DCCF8091E80085FD07C0A092E800DD2420
:1008D000D394209791F2F3CF209779F6772069F29D
:1008E000A092E800CACF5D9884E680937101C701A9
:1008F0007CCF615030F02091F100FC012083019603
:10090000F8CF289884E6809384010895809164014B
:1009100081110DC082E08093600184E080936101C9
:10092000109263011092620181E08093640180E67D
:1009300091E00895EF92FF921F93CF93DF931F9260
:10094000CDB7DEB77C018091E70181112AC011E0AB
:100950001093DA011093DB0180EE91E09093DD01BA
:100960008093DC011092DF011092DE018CE391E0B4
:100970009093D7018093D6011092E2011092E10189
:100980001092E4011092E3011093E5011093E60147
:1009900081EC8093E0010E9486040E94C7011093BD
:1009A000E70182E0898341E050E0BE016F5F7F4F45
:1009B0008091D9010E94DF0397FD08C08091D90181
:1009C00048E050E0B70180640E94DF030F90DF91A0
:1009D000CF911F91FF90EF9008950F931F93CF93A6
:1009E000DF931F92CDB7DEB782E0898342E450E007
:1009F0006CEA70E080E80E94A8030E948604DC0193
:100A000012960D911C910115110589F0D801ED91F7
:100A1000FC910280F381E02DBE016F5F7F4FC80122
:100A2000099597FD04C0F80100851185ECCF8981F7
:100A30000F90DF91CF911F910F910895CF93DF9386
:100A4000EC0180910B01882331F083E00E94DF03E9
:100A50001816190634F081E090E09B838A8380E0C9
:100A600090E0DF91CF910895CF93DF931F92CDB7A0
:100A7000DEB76983DC01ED91FC910280F381E02D0A
:100A800041E050E0BE016F5F7F4F09950F90DF910D
:100A9000CF9108950F931F93CF93DF938C01D0E0F4
:100AA000C0E0F801EC0FFD1F6491662341F086E879
:100AB00091E00E943405892B11F02196F2CFCE01EE
:100AC000DF91CF911F910F91089583E08093E9000A
:100AD0008091F200882319F08AE38093E80008955A
:100AE00083E00E94CE0390E00895CF93DF931F929E
:100AF000CDB7DEB7FC018485958597FD08C02FEF43
:100B00003FEF358724870F90DF91CF910895CE0175
:100B100001960E943502019719F4898190E0F3CF84
:100B20008FEF9FEFF0CF0F931F93CF93DF931F9221
:100B3000CDB7DEB78C01FC018485958597FF0BC08E
:100B4000CE0101960E943502019771F4898190E0EF
:100B5000F80195878487F801848595850F90DF914A
:100B6000CF911F910F9108958FEF9FEFF1CFFC016F
:100B70008485958597FD0BC09FB7F89482E080939C
:100B8000E9008091F2009FBF90E0019608959FB721
:100B9000F89482E08093E9008091F2009FBF90E09A
:100BA0000895DC01FB0112962C91129784819581A6
:100BB0002817190641F491818081813A31F49D7F93
:100BC00081E0913009F080E008958132E1F79B30B7
:100BD00029F482811F968C9381E008959A3099F7C9
:100BE000828150968C93F8CFDC01FB0188E48083EE
:100BF00089E4818384E482831D969C911D979F7074
:100C00009F5B93831D968D919C9124E0969587958B
:100C10002A95E1F78F708F5B848385E00895EF92CA
:100C2000FF920F931F93CF93DF93FB012081213815
:100C300071F52381223259F5DC0112964C91248101
:100C400035814217130619F5EC010B851C85F12C33
:100C5000E12C0115110589F0F8014481558162816B
:100C6000738180E80E94A8038F3F980749F0E80E3F
:100C7000F91ED8010D911C91ECCF81E08F87C7013F
:100C8000DF91CF911F910F91FF90EF90089590E029
:100C900080E0F6CFCF93DF93CDB7DEB769970FB67D
:100CA000F894DEBF0FBECDBFFC01DB018C918F5FDE
:100CB0008C939E012D5F3F4F8DE0D9011D928A9547
:100CC000E9F729E0298384E08A8391E09D8383E02A
:100CD0008E832A8721E22B879C879D879F8722E22C
:100CE000288B27E02B8B25E02C8B8E8B20E430E0AB
:100CF000388F2F8B998F82818B8395858685998BF1
:100D00008A8B838180688D8B49E150E0BE016F5FE3
:100D10007F4F80E00E94A80369960FB6F894DEBF6B
:100D20000FBECDBFDF91CF910895CF92DF92EF92AA
:100D3000FF920F931F93CF93DF936C01EB017B0125
:100D4000E40EF51E10E000E0CE15DF0581F069919C
:100D50006D30D1F3D601ED91FC910190F081E02D41
:100D6000C6010995892B19F00F5F1F4FEDCFC80100
:100D7000DF91CF911F910F91FF90EF90DF90CF9077
:100D80000895DC016838A0F06858FD0186E066230C
:100D900021F09681961301C01682815031968111FF
:100DA000F6CFCD0104960E949A0481E090E0089568
:100DB000862F90E067FF13C0FC01E058F10981E045
:100DC00090E001C0880FEA95EAF7809514969C910F
:100DD0001497892314968C93149760E0D6CF1C96B1
:100DE000ED91FC911D97E80FF91F64916623E1F0E6
:100DF000862F807C803C69F414968C9114978F7BAD
:100E000014968C9314976F73623309F0BECF64E627
:100E1000BCCF67FFF9CF14968C9114978D7F1496F1
:100E20008C9314976F77F0CF90E080E00895DC0109
:100E3000683888F1685816968C911697861721F1B4
:100E400017968C9117978617F9F018968C9118972A
:100E50008617D1F019968C9119978617A9F01A96D2
:100E60008C911A97861781F01B968C911B97861789
:100E700059F0FD01369690E080E0219121114FC09C
:100E80008A0F9B1FFC016683CD0104960E949A0481
:100E900081E090E00895862F90E067FF12C0FC018A
:100EA000E058F10921E030E001C0220FEA95EAF7AD
:100EB00014968C911497822B14968C93149760E05F
:100EC000BACF1C96ED91FC911D97E80FF91F649124
:100ED000611109C081E090E013969C938E93129764
:100EE00090E080E00895862F807C803C69F4149621
:100EF0008C911497806414968C9314976F7362335B
:100F000009F099CF64E697CF67FFF9CF14968C91DB
:100F10001497826014968C9314976F77F0CF019694
:100F20008630910509F0A9CFD5CFEF92FF921F939C
:100F3000CF93DF93EC01162F0E9417077C01612FDE
:100F4000CE010E94C106C7019927DF91CF911F9161
:100F5000FF90EF900895089590E080E008950F933A
:100F60001F93CF93FB016081681789F08F01C82F11
:100F7000662321F08DEF91E00E94C106CC2329F079
:100F80006C2F8DEF91E00E941707F801C083CF917D
:100F90001F910F910895FC0101900020E9F731970E
:100FA000AF01481B590BBC0186E891E00C941E056B
:100FB000CF93DF930E944A05EC0180E591E00E9407
:100FC000CB078C0F9D1FDF91CF9108958F929F9239
:100FD000AF92BF920F931F93CF93DF93CDB7DEB73E
:100FE000A1970FB6F894DEBF0FBECDBF19A2423055
:100FF00008F44AE08E010F5D1F4F842E912CB12C16
:10100000A12CA50194010E94C011E62FB901CA01CB
:10101000EA30F4F4E05DD801EE938D01232B242B0C
:10102000252B79F790E080E0109719F0CD010E9410
:10103000CB07A1960FB6F894DEBF0FBECDBFDF91F0
:10104000CF911F910F91BF90AF909F908F90089577
:10105000E95CE1CF4F925F926F927F928F929F9265
:10106000AF92BF92CF92DF92EF92FF920F931F93B6
:10107000CF936B017C01742EAC019B010E94BB11CC
:10108000882399F083E591E0CF911F910F91FF9014
:10109000EF90DF90CF90BF90AF909F908F907F9018
:1010A0006F905F904F900C94CB0746015701E894E6
:1010B000B7F82FEF3FEF4FE75FE7C501B4010E949C
:1010C000BB1181110DC02FEF3FEF4FE75FE7C50167
:1010D000B4010E94EA0F18161CF487E591E0D4CF02
:1010E0002FEF3FEF4FE75FE4C701B6010E944911C0
:1010F00018161CF48BE591E0C7CF2FEF3FEF4FE7B9
:101100005FECC701B6010E94EA0F87FDF3CF20E034
:1011100030E0A901C701B6010E94EA0F10E000E02B
:1011200087FF0AC06DE286E891E00E9434058C01D9
:10113000F7FAF094F7F8F094C0E060E070E080E037
:101140009FE37C1641F020E030E040E251E40E9451
:10115000EF0FCF5FF6CFA70196010E947E0F2B0104
:101160003C010E9468104B015C014AE00E94E607C6
:101170007C01E00EF11ECC23C1F1C501B4010E9437
:1011800097109B01AC01C301B2010E947D0F4B017E
:101190005C016EE286E891E00E943405E80EF91EDB
:1011A000C15018F120E030E040E251E4C501B40143
:1011B0000E944E112B013C010E9468104B01B12C82
:1011C000A12C4AE0C501B4010E94E607E80EF91E11
:1011D000C501B4010E9497109B01AC01C301B2018B
:1011E0000E947D0F4B015C01DBCFC701CF911F91A6
:1011F0000F91FF90EF90DF90CF90BF90AF909F90B6
:101200008F907F906F905F904F9008951F920F92F4
:101210000FB60F9211242F933F938F939F93AF9309
:10122000BF9380917C0190917D01A0917E01B0914E
:101230007F0130917B0123E0230F2D3758F5019674
:10124000A11DB11D20937B0180937C0190937D01B2
:10125000A0937E01B0937F018091800190918101E4
:10126000A0918201B09183010196A11DB11D8093CF
:10127000800190938101A0938201B0938301BF917B
:10128000AF919F918F913F912F910F900FBE0F9033
:101290001F90189526E8230F0296A11DB11DD2CFED
:1012A0001F920F920FB60F9211248F939F938091EC
:1012B000E1009091E100937F9093E10083FF0FC0E4
:1012C0001092E90091E09093EB001092EC0092E311
:1012D0009093ED001092850198E09093F00082FFCA
:1012E00022C093E09093E9009091F200992319F0C5
:1012F0009AE39093E80090917101992341F09091C5
:101300007101915090937101911101C05D9A90917A
:101310008401992341F0909184019150909384012C
:10132000911101C0289A84FF18C08091E2008E7E3E
:1013300081608093E2008091E1008F7E8093E100E4
:10134000809172018E7E8061809372019F918F9156
:101350000F900FBE0F901F90189580FFF7CF8091D0
:10136000E2008E7E80618093E2008091E1008E7EBB
:101370008093E100809172018E7E8160E5CF1F92A3
:101380000F920FB60F921124CF92DF92EF92FF923D
:101390000F931F932F933F934F935F936F937F937D
:1013A0008F939F93AF93BF93EF93FF93CF93DF936D
:1013B000CDB7DEB76C97DEBFCDBF1092E90080914C
:1013C000E80083FF25C068E0CE0145960E947904BD
:1013D00082EF8093E8008D8987FF39C09091E80003
:1013E00090FFFCCF982F907609F034C19E894F89E9
:1013F000588D2F89F88C911131C0803861F580911A
:1014000073018093F1001092F1008EEF8093E80059
:101410006C960FB6F894DEBF0FBECDBFDF91CF91B3
:10142000FF91EF91BF91AF919F918F917F916F91BC
:101430005F914F913F912F911F910F91FF90EF90EE
:10144000DF90CF900F900FBE0F901F9018959EEFDA
:101450009093E800C7CF1092F100D5CF913059F4A6
:101460008111D3CF4130510581F6809173018D7F79
:1014700080937301CACF933049F48111C6CF4130B4
:10148000510519F6809173018260F2CF953041F4D5
:101490008091E80080FFFCCF20682093E300B5CF67
:1014A000963009F0A9C00B8D1C8D22E01092E90046
:1014B00010926F0110926E01F2122EC010926D0107
:1014C00010926C010E94ED041F8299E09983FA82C8
:1014D00091E09E8390EA98879AEF998720916E0118
:1014E00030916F01275F3F4F3C832B838D83109298
:1014F000E90010926F0110926E0110936D0100933C
:101500006C0149E050E0BE016F5F7F4F80E00E94B8
:10151000A8030E94ED0479CF10936D0100936C0134
:101520000E948604DC0112960D911C910115110593
:1015300009F451C1D801ED91FC910480F581E02DB1
:10154000BE016B5E7F4FC8010995009709F03EC14F
:10155000F80100851185EACFF3E0FF120EC08F89F4
:10156000882309F440C0823061F440E860E180E102
:1015700091E00E947503811148CF81E28093EB00D6
:1015800047CF813029F440E86BE084E091E0F1CF6F
:10159000833099F70E948604DC011296ED90FC904E
:1015A0008E010F5F1F4F6801E114F10479F0D7013C
:1015B000ED91FC910680F781E02DB801C7010995F6
:1015C000080F111DF701E084F184EECFD8011C92C1
:1015D000F60101900020E9F73197BF016C197D09F0
:1015E00040E0C601C6CF6EEE70E0FB01449150E0D2
:1015F00080E80E94A80309CF973009F4BECF983045
:1016000021F481E08093F10000CF993009F0FDCE04
:10161000837009F0B2CFE1E1F1E081E031E096E3DF
:101620002191222371F08093E9003093EB00DF01D8
:1016300011972C912093EC009093ED008F5F8730F1
:1016400079F78EE78093EA001092EA008F89809301
:101650008501DBCE8B8D9C8D1092E90010926F017D
:1016600010926E0190936D0180936C01898D8111B0
:1016700092C08E899D89913A49F4813209F07DCFDB
:1016800047E050E064E071E080E0B3CF913209F0D0
:1016900074CF833269F48F89988DB0E0A0E0809395
:1016A000000190930101A0930201B0930301ADCE1C
:1016B000803269F48091E80082FFFCCF67E084E02B
:1016C00091E00E9479048BEF8093E8009ECE8232F5
:1016D00009F09BCE8F8980930B01EEEFFFE7859198
:1016E00094918B3F9C4D51F1E0E0F8E08091040132
:1016F00090910501A0910601B0910701803B9440B3
:10170000A105B105F1F480910B0180FD1AC0EE3FF7
:101710008AE0F80789F587E797E7918380838091CE
:1017200060008093700188E19BE00FB6F894A89563
:10173000809360000FBE9093600067CEEEEFFAE0FA
:10174000D5CF808191818737974709F05ECEA895E4
:101750008091600088618093600080917001809327
:101760006000EE3F2AE0F20789F08091FE0A909136
:10177000FF0A9183808349CE8081918187379807C2
:1017800051F29093FF0A8093FE0AC5CF1092FF0A90
:101790001092FE0A3ACE0E948604DC0112960D9148
:1017A0001C910115110509F4E8CED801ED91FC91C9
:1017B0000190F081E02DBE016B5E7F4FC80109955D
:1017C000811123CEF80100851185EBCF181619067B
:1017D0000CF41BCED2CEF1E0FF12BECE62EF70E071
:1017E00004CFCF93109289011092880188EE93E084
:1017F000A0E0B0E080938A0190938B01A0938C01CC
:10180000B0938D018AE291E09093870180938601E5
:101810008FEF9FEF909393018093920110920002BB
:101820001092FF0188E491E09093FE018093FD0106
:101830008091F501811113C01092F0011092EF0117
:1018400088E093E09093F2018093F1018FE290E0C1
:101850009093F4018093F30181E08093F5018091EE
:10186000E70181112AC0C1E0C093DA01C093DB0116
:1018700080EE91E09093DD018093DC011092DF0116
:101880001092DE018CE391E09093D7018093D60112
:101890001092E2011092E1011092E4011092E30132
:1018A000C093E501C093E60181EC8093E0010E94C2
:1018B00086040E94C701C093E701E091E101F09125
:1018C000E2013097E9F48FEE91E09093E20180938A
:1018D000E1018091E3019091E4012091F3013091C5
:1018E000F401820F931F9093E4018093E30188E851
:1018F00092E090930A0280930902CF910895FC012F
:10190000808191810097D9F78FEE91E09183808358
:10191000E0CFCF93DF9300D000D000D0CDB7DEB7BB
:10192000789484B5826084BD84B5816084BD85B5BA
:10193000826085BD85B5816085BD80916E008160C6
:1019400080936E001092810080918100826080936C
:10195000810080918100816080938100809180006E
:1019600081608093800080919100826080939100DB
:1019700080919100816080939100809190008160BE
:10198000809390008091C10084608093C100809119
:10199000C10082608093C1008091C100816080930A
:1019A000C1008091C30081608093C3008091C0001A
:1019B00082608093C0008091C20081608093C200E9
:1019C00080917A00846080937A0080917A008260AE
:1019D00080937A0080917A00816080937A00809170
:1019E0007A00806880937A001092850110927301CA
:1019F000109272018091D70081608093D70080EAB5
:101A00008093D80089B5806189BD89B5826089BD20
:101A100009B400FEFDCF61E070E080E090E00E943C
:101A200015038091D8008F7C80618093D8008091CD
:101A3000E000807F8093E0008091E1008E7E8093C3
:101A4000E1008DE08093E200559A209A82E00E94A6
:101A50000D0287E00E940D0264EC79E080E090E0E6
:101A60000E9415038FEF9FEF909393018093920153
:101A70008FB7F894C0907C01D0907D01E0907E01FA
:101A8000F0907F018FBF20910B0129836AE070E005
:101A900080E090E00E9415033981311114C02FB706
:101AA000F89480917C0190917D01A0917E01B0918C
:101AB0007F012FBF8C199D09AE09BF09803D97405A
:101AC000A105B10500F38DE591E00E94D80781E200
:101AD00091E00E94D80711E082E10E94CE027C01D1
:101AE00083E10E94CE029A838983B701FF0C880BA1
:101AF000990B0E9499102AE038E240EA5BE30E94C9
:101B00004E114B015C0129813A81B901330F880BD9
:101B1000990B0E9499102AE038E240EA5BE30E94A8
:101B20004E116B017C0182E00E945F0220917A01DC
:101B3000892B09F069C121110CC088E892E09093CB
:101B40000A028093090210937A0185ED91E00E94C8
:101B5000D80780917A01882309F4BDC123E333E3D8
:101B600043EB5FE3C501B4010E94EA0F18160CF4C1
:101B700071C12DEC3CEC4CE85FE3C501B4010E945F
:101B80007D0F28E939E949E95EE30E94EF0F20E083
:101B900030E040EA50E40E944E110E94611065302E
:101BA000710514F064E070E077FF02C070E060E05F
:101BB000645E7E4FDB018C9169E771E00E94AF07A4
:101BC0002AE939E949E95EE3C701B6010E94EA0F53
:101BD00018160CF06FC12DEC3CEC4CEC5EE3C70129
:101BE000B6010E947D0F2EEC3CEC4CE45FE30E94BA
:101BF000EF0F20E030E040EA50E40E944E110E94D6
:101C000061107E836D836530710524F084E090E07F
:101C10009E838D83AD81BE81B7FF02C01E821D826F
:101C200020900E0130900F01FEEF2F16FFEF3F06C0
:101C300009F44EC02D813E812216330609F448C0B6
:101C40003FEF2316330609F43AC1B101032C000C0F
:101C5000880B990B0E9499102BE037ED43E25EE36D
:101C60000E944E112DEC3CEC4CEC5EE30E947E0F8A
:101C70002B013C012BE037ED43E25EE30E947E0F37
:101C800069837A838B839C832DEC3CEC4CE45DE38D
:101C9000C301B2010E947D0F9B01AC01C701B601D7
:101CA0000E9449111816A4F42DEC3CEC4CE45DE3C1
:101CB00069817A818B819C810E947E0F9B01AC019E
:101CC000C701B6010E94EA0F87FF02C03E822D8243
:101CD000AD81BE81B0930F01A0930E0180E0AF3FB4
:101CE000BA0719F0AF5DBE4F8C9168E771E00E94B2
:101CF000AF0787E00E945F029C0191E0211531054A
:101D000009F490E08FB7F89440917C0150917D01E7
:101D100060917E0170917F018FBF80910C019817B7
:101D200051F090930C0140937401509375016093AE
:101D30007601709377014090740150907501609026
:101D400076017090770144195509660977094E317B
:101D500051056105710568F080910D01981749F0F2
:101D600090930D01232B29F462E78DEF91E00E94FF
:101D7000950786EB91E00E944A0543E0C501B40156
:101D80000E942A088EEA91E00E944A0543E0C701BA
:101D9000B6010E942A0883EA91E00E944A058091D8
:101DA0007A01882309F4A6C08AE991E00E944A05D5
:101DB0008CE991E00E944A0560917901611101C0AE
:101DC0006DE286E891E00E94340589E891E00E9486
:101DD0004A0560917801611101C06DE286E891E0E9
:101DE0000E94340580E591E00E94CB0764E170E039
:101DF00080E090E00E94150380E090E0892B09F4D8
:101E00006BCE0E94000067CE222309F4A2CE8091FF
:101E10007901811104C0809178018823B1F010927A
:101E20000302109204021092050210920602109210
:101E30000702109208021092010281E092E00E94D3
:101E40009A04109279011092780110927A018AEB2B
:101E500091E07DCE23E333E343EF5FE3C501B401BB
:101E60000E94491187FD24C023E333E343EF5FE37E
:101E7000C501B4010E947D0F2CE939E949E95EE30F
:101E80000E94EF0F20E030E040EA50E40E944E1143
:101E90000E9461106530710514F064E070E077FF16
:101EA00002C070E060E0695E7E4FFB01808184CEFD
:101EB00080E082CEEFEFFFEFFE83ED83B1CE8AE9C3
:101EC00099E9A9E9BEE389839A83AB83BC83412C5A
:101ED000512C3201D9CE10927901109278012EEF57
:101EE0003FEF30930F0120930E0110930D011093DB
:101EF0000C013FCF88E991E059CF5058BB27AA2762
:101F00000E94950F0C940F110E94011138F00E944D
:101F1000081120F039F49F3F19F426F40C94FE10B8
:101F20000EF4E095E7FB0C94F810E92F0E942011C5
:101F300058F3BA17620773078407950720F079F4FE
:101F4000A6F50C9442110EF4E0950B2EBA2FA02D9D
:101F50000B01B90190010C01CA01A0011124FF2756
:101F6000591B99F0593F50F4503E68F11A16F04051
:101F7000A22F232F342F4427585FF3CF4695379550
:101F80002795A795F0405395C9F77EF41F16BA0B15
:101F9000620B730B840BBAF09150A1F0FF0FBB1FC3
:101FA000661F771F881FC2F70EC0BA0F621F731F0C
:101FB000841F48F4879577956795B795F7959E3F69
:101FC00008F0B0CF9395880F08F09927EE0F9795FA
:101FD000879508950E94D41008F481E008950E9426
:101FE00003100C940F110E94081158F00E94011167
:101FF00040F029F45F3F29F00C94F81051110C9433
:1020000043110C94FE100E94201168F39923B1F340
:10201000552391F3951B550BBB27AA27621773070E
:10202000840738F09F5F5F4F220F331F441FAA1FA2
:10203000A9F335D00E2E3AF0E0E832D0915050405E
:10204000E695001CCAF72BD0FE2F29D0660F771F0C
:10205000881FBB1F261737074807AB07B0E809F0F2
:10206000BB0B802DBF01FF2793585F4F3AF09E3F77
:10207000510578F00C94F8100C9443115F3FE4F391
:10208000983ED4F3869577956795B795F7959F5FBA
:10209000C9F7880F911D9695879597F90895E1E006
:1020A000660F771F881FBB1F621773078407BA0765
:1020B00020F0621B730B840BBA0BEE1F88F7E095C0
:1020C00008950E9468106894B1110C94431108950A
:1020D0000E94281188F09F5798F0B92F9927B7517F
:1020E000B0F0E1F0660F771F881F991F1AF0BA95BC
:1020F000C9F714C0B13091F00E944211B1E00895C7
:102100000C944211672F782F8827B85F39F0B93FB8
:10211000CCF3869577956795B395D9F73EF490956E
:102120008095709561957F4F8F4F9F4F0895E894EC
:1021300009C097FB3EF490958095709561957F4F0F
:102140008F4F9F4F9923A9F0F92F96E9BB279395BD
:10215000F695879577956795B795F111F8CFFAF4CD
:10216000BB0F11F460FF1BC06F5F7F4F8F4F9F4FFE
:1021700016C0882311F096E911C0772321F09EE85C
:10218000872F762F05C0662371F096E8862F70E0C2
:1021900060E02AF09A95660F771F881FDAF7880F9C
:1021A0009695879597F90895990F0008550FAA0BF2
:1021B000E0E8FEEF16161706E807F907C0F012165A
:1021C0001306E407F50798F0621B730B840B950B5D
:1021D00039F40A2661F0232B242B252B21F40895B2
:1021E0000A2609F4A140A6958FEF811D811D08954F
:1021F00097F99F6780E870E060E008959FEF80ECBA
:10220000089500240A94161617061806090608955C
:1022100000240A9412161306140605060895092EC2
:102220000394000C11F4882352F0BB0F40F4BF2B31
:1022300011F460FF04C06F5F7F4F8F4F9F4F089571
:1022400057FD9058440F551F59F05F3F71F0479567
:10225000880F97FB991F61F09F3F79F0879508954C
:10226000121613061406551FF2CF4695F1DF08C06B
:10227000161617061806991FF1CF86957105610588
:1022800008940895E894BB2766277727CB0197F930
:1022900008950E94D41008F48FEF08950E946111F0
:1022A0000C940F110E94011138F00E94081120F0C7
:1022B000952311F00C94F8100C94FE1011240C943A
:1022C00043110E94201170F3959FC1F3950F50E0C8
:1022D000551F629FF001729FBB27F00DB11D639FD8
:1022E000AA27F00DB11DAA1F649F6627B00DA11D7E
:1022F000661F829F2227B00DA11D621F739FB00D24
:10230000A11D621F839FA00D611D221F749F332793
:10231000A00D611D231F849F600D211D822F762F2C
:102320006A2F11249F5750409AF0F1F088234AF009
:10233000EE0FFF1FBB1F661F771F881F9150504075
:10234000A9F79E3F510580F00C94F8100C944311AE
:102350005F3FE4F3983ED4F3869577956795B795FC
:10236000F795E7959F5FC1F7FE2B880F911D969516
:10237000879597F908950E94D410880B990B0895BA
:10238000A1E21A2EAA1BBB1BFD010DC0AA1FBB1F79
:10239000EE1FFF1FA217B307E407F50720F0A21BEB
:1023A000B30BE40BF50B661F771F881F991F1A9458
:1023B00069F760957095809590959B01AC01BD0182
:1023C000CF010895EE0FFF1F0590F491E02D0994C1
:0423D000F894FFCFAF
:1023D400FFFFFFFF00E10000000000000101FEFF1D
:1023E40000C1808100000067666473613B6C6B6AA6
:1023F400687A786376620000000034051E05700573
:102404006505B7057505930500000000D1054A066A
:102414000F06F4050000000095079506AC07AB070E
:102424000D0A006E616E00696E66006F76660000CC
:00000001FF
